:020000040800F2
:1000000000040020DD010008E5010008E701000808
:10001000E9010008EB010008ED0100080000000004
:10002000000000000000000000000000EF010008D8
:10003000F101000800000000F3010008F5010008CC
:10004000F7010008F7010008F7010008F7010008B0
:10005000F7010008F7010008F7010008F7010008A0
:10006000F7010008F7010008F7010008F701000890
:10007000F7010008F7010008F7010008F701000880
:10008000F7010008F7010008F7010008F701000870
:10009000F7010008F7010008F7010008F701000860
:1000A000F7010008F7010008F7010008F701000850
:1000B000F7010008F7010008F7010008F701000840
:1000C000F7010008F7010008F7010008F701000830
:1000D000F7010008F7010008F7010008F701000820
:1000E000F7010008F7010008F7010008F701000810
:1000F000F7010008F7010008F7010008F701000800
:10010000F7010008F7010008F7010008F7010008EF
:10011000F7010008F7010008F7010008F7010008DF
:10012000F7010008F7010008F7010008F7010008CF
:10013000F7010008F7010008F7010008F7010008BF
:10014000F7010008F7010008F7010008F7010008AF
:10015000F7010008F7010008F7010008F70100089F
:10016000F7010008F7010008F7010008F70100088F
:10017000F7010008F7010008F7010008000000007F
:10018000F7010008F7010008F7010008F70100086F
:10019000F7010008F7010008F7010008F70100085F
:1001A000F7010008F7010008F7010008F70100084F
:1001B000F7010008F7010008F7010008F70100083F
:1001C000F7010008F7010008DFF80CD000F018F87C
:1001D00000480047970200080004002006488047B6
:1001E00006480047FEE7FEE7FEE7FEE7FEE7FEE71C
:1001F000FEE7FEE7FEE7FEE725020008C90100086A
:10020000064C074D06E0E06840F0010394E8070063
:1002100098471034AC42F6D3FFF7DAFF9802000893
:10022000A8020008104A30B51048146800210F4B8E
:1002300044F470041460083305680D4A0D4C45F011
:100240000105056019600368051D1340074A036036
:100250000C322C600568E305034C25F4802505600D
:10026000803C1160236030BD88ED00E00038024022
:10027000FFFFF6FE1030002402E008C8121F08C17C
:10028000002AFAD170477047002001E001C1121F17
:10029000002AFBD17047FEE7A802000800000020FA
:0802A0000004000088020008C0
:04000005080001C925
:00000001FF
