:020000040800F2
:1000000040040020DD010008AF0B0008AB0B000826
:10001000AD0B000825020008550C00080000000088
:10002000000000000000000000000000D50B0008E8
:100030002702000800000000D30B0008D90B0008BD
:10004000F7010008F7010008F7010008F7010008B0
:10005000F7010008F7010008F7010008F7010008A0
:10006000F7010008F7010008F7010008F701000890
:10007000F7010008F7010008F7010008F701000880
:10008000F7010008F7010008F7010008F701000870
:10009000F7010008F7010008F7010008F701000860
:1000A000F7010008F7010008F7010008F701000850
:1000B000F7010008F7010008F7010008F701000840
:1000C000F7010008F7010008F7010008F701000830
:1000D000F7010008F7010008F7010008F701000820
:1000E00029020008F7010008F7010008F7010008DD
:1000F000F7010008F7010008F7010008F701000800
:10010000F7010008F7010008F7010008F7010008EF
:10011000F7010008F7010008F7010008F7010008DF
:10012000F7010008F7010008F7010008F7010008CF
:10013000F7010008F7010008F7010008F7010008BF
:10014000F7010008F7010008F7010008F7010008AF
:10015000F7010008F7010008F7010008F70100089F
:10016000F7010008F7010008F7010008F70100088F
:10017000F7010008F7010008F7010008000000007F
:10018000F7010008F7010008F7010008F70100086F
:10019000F7010008F7010008F7010008F70100085F
:1001A000F7010008F7010008F7010008F70100084F
:1001B000F7010008F7010008F7010008F70100083F
:1001C000F7010008F7010008DFF80CD000F018F87C
:1001D000004800476D100008400400200648804792
:1001E00006480047FEE7FEE7FEE7FEE7FEE7FEE71C
:1001F000FEE7FEE7FEE7FEE7010C0008C901000884
:10020000064C074D06E0E06840F0010394E8070063
:1002100098471034AC42F6D3FFF7DAFF1811000804
:1002200038110008FEE77047704731B500F0FAF862
:10023000044600F0F7F80099001B8842F9D338BD56
:100240002DE9F84FDFF89CE100224FF001084FF054
:10025000030B4FF00F0A00BF0B6808FA02F42340AB
:10026000A34271D14D68022D01D0122D0FD1D508B6
:100270000E69570700EB8505A9462D6AFF0E0AFA9D
:1002800007FCBE4025EA0C052E43C9F820600F7913
:10029000550006680BFA05FC07F0030726EA0C0672
:1002A000AF40374307604E68012E05D0022E03D0C1
:1002B000112E01D0122E0ED18668CF6826EA0C06C8
:1002C000AF403743876046680F79A643C7F30017EE
:1002D000974037434760C4688E6824EA0C04AE40F8
:1002E0002643C6604C68E40075D53F4C256845F44C
:1002F00080452560246822F00306950704F48044B5
:1003000000943A4C2D0F2644D6F80848DFF8E0C098
:100310000AFA05F7604524EA070401D100272EE018
:10032000344FB84201D1012729E0334FB84201D1FF
:10033000022724E0314FB84201D103271FE0304F9C
:10034000B84202D104271AE045E02E4FB84201D14D
:10035000052714E02C4FB84201D106270FE02B4FA0
:10036000B84201D107270AE0294FB84201D1082736
:1003700005E0284FB84201D1092700E00A27AF4025
:1003800027437546C6F808784E68DEF80040F60345
:1003900024EA030400D51C43124E2C60361D4D6820
:1003A0003468AD0324EA030400D51C430D4F3460C8
:1003B00008374D683C68ED0224EA030400D51C436D
:1003C000084D3C600C354E682C68B60224EA0304E4
:1003D00000D51C432C60521C102AFFF43DAFBDE831
:1003E000F88F0000003C01404438024000300140DA
:1003F000000002400004024000080240000C0240DD
:10040000001002400014024000180240001C02408C
:1004100000200240002402400069084000D0012072
:100420007047000001480068704700001400002079
:1004300002480168491C0160704700001400002058
:10044000074810B5016841F400710160032000F015
:100450003BF80F2000F006F800F015F8002010BD62
:10046000003C024010B5044600F064F94FF47A7184
:10047000B0FBF1F000F086FB00222146501E00F098
:1004800003F8002010BD70470E4BF0B41B680D46FA
:10049000C3F30223C3F10706042E00D90426191D55
:1004A000072901D2002300E0DB1E012404FA06F133
:1004B0009C40491E2940641E994014402143F0BCD1
:1004C00000F076BB0CED00E0064900F0070210B525
:1004D0004FF6FF040868044B204040EA022018430E
:1004E000086010BD0CED00E00000FA051848F8B5F2
:1004F000016841F0805101600068164C00F08050A6
:100500000090206840F480302060FFF78BFF4FF4AC
:100510007A76054605E000BFFFF784FF401BB04236
:100520000FD86068C003F7D5206840F40030206021
:10053000FFF778FF054606E0FFF774FF401BB04267
:1005400001D90320F8BD60688003F5D50020F8BD0F
:1005500040380240007000402DE9F047DFF8BC91C0
:100560000E4605466E4841F28838D9F800106C4CAA
:1005700001F00F010834B1425AD2D9F8002022F01C
:100580000F023243C9F80020D9F8001001F00F0122
:10059000B14270D12978890705D5AA68216821F070
:1005A000F001114321602978C90729D06968012920
:1005B00014D00068022914D0800700285BDA206874
:1005C00020F0030008432060FFF72CFF0646686810
:1005D00001280FD00228474619D024E00068800384
:1005E000EBE78001E9E700BFFFF71CFF801BB84283
:1005F00001D964E047462068C0F381000128F3D1A7
:1006000073E000BFFFF70EFF801BB84257D8206889
:10061000C0F381000228F5D167E000BFFFF702FFB9
:10062000801BB8424BD8206810F00C0FF6D15CE06C
:100630002978890705D5AA68216821F0F0011143BE
:1006400021602978C90741D06968012914D0006860
:10065000022914D08007002845DA206820F0030022
:1006600008432060FFF7DEFE0746686801280ED0C9
:10067000022818D026E036E000688003EBE780010E
:10068000E9E700BFFFF7CEFEC11B414517D8206840
:10069000C0F381000128F5D118E000BFFFF7C2FECA
:1006A000C11B41450BD82068C0F381000228F5D159
:1006B0000CE000BFFFF7B6FEC11B414502D9032085
:1006C000BDE8F087206810F00C0FF3D1D9F80010C6
:1006D00021F00F013143C9F80010D9F8000000F0F3
:1006E0000F00B04201D00120EAE72878400705D585
:1006F000E968206820F4E05008432060287800076B
:1007000006D52869216821F4604141EAC0002060D3
:100710000F20FFF7A7FE0020D2E70000003C0240B8
:10072000003802400248016841F40021016070472E
:100730000038024000B500F017F80849F0230A68B5
:1007400093FAA3F3064902F0F002B3FA83F3DA4016
:10075000044B9A5CD040086000BD0000083802409D
:1007600000000020081100081D4930B51D48096827
:1007700011F00C011AD01C4B042916D0082915D1F0
:10078000174947F6C072091F0C680D6804F03F0452
:100790006D020CD50D68B3FBF4F092FAA2F315408C
:1007A000B3FA83F2D54068430BE0184630BD0B68BE
:1007B000B0FBF4F092FAA2F41340B4FA84F2D340FE
:1007C000584309684FF4403292FAA2F201F44031E2
:1007D000B2FA82F2D140491C4900B0FBF1F030BDC1
:1007E000083802400024F40040787D012DE9F84FDC
:1007F000DFF888830446007841F2883BA8F10409B9
:10080000A9F10405C00769D0D8F800104046C1F32B
:100810008101012908D00068C0F3810002280AD1B3
:10082000D9F80000400206D52868800356D56068D4
:10083000002878D052E0286820F4803028602868AA
:1008400020F480202860286820F480302860FFF79A
:10085000E9FD07465E4604E0FFF7E4FDC01BB04239
:1008600076D828688003F7D4286820F48030286080
:100870006068B0F5803F10D0B0F5A02F286810D088
:1008800020F480202860286820F480302860606888
:10089000B8B1FFF7C7FD07460FE0286820F48020B5
:1008A00001E040F480202860286840F48030EDE7C3
:1008B000FFF7B8FDC01BB042D2D828688003F7D537
:1008C0000CE0FFF7AFFD074605E000BFFFF7AAFD0C
:1008D000C01BB042C4D828688003F7D420788007B2
:1008E00046D5D8F80010F827404611F00C0F08D074
:1008F0000068C0F3810002280AD1D9F80000400244
:1009000006D42868800717D5E06801280BD113E0CA
:10091000E068002828681CD040F001002860FFF73C
:1009200081FD064605E026E1FFF77CFD801B64287B
:1009300096D828688007F7D52069296897FAA7F222
:10094000B2FA82F221F0F8019040014329600FE0F1
:1009500093E020F001002860FFF764FD064604E004
:10096000FFF760FD801B6428A6D828688007F7D4AD
:100970002078000724D5814E60696C3600283068E5
:100980000FD040F001003060FFF74CFD074604E057
:10099000FFF748FDC01B64286FD830688007F7D583
:1009A0000EE020F001003060FFF73CFD074604E058
:1009B000FFF738FDC01B64285FD830688007F7D484
:1009C0002078400771D56D483830016841F080517A
:1009D000016000686A4E00F080500090306840F47A
:1009E00080703060FFF71EFD074604E0FFF71AFD38
:1009F000C01B642841D83068C005F7D55F4E683603
:100A0000306820F001003060306820F00400306071
:100A1000306820F001003060FFF704FD82465F4639
:100A200006E000BFFFF7FEFCA0EB0A00B84224D8A6
:100A300030688007F6D4306820F001003060A0688C
:100A400001280FD00528306810D020F00400306055
:100A5000306820F001003060A068C8B1FFF7E2FC08
:100A6000824611E0306820F0040001E040F004000C
:100A70003060306840F00100EDE774E0FFF7D2FC31
:100A8000A0EB0A00B8426ED830688007F6D50CE0BB
:100A9000FFF7C8FC824605E0FFF7C4FCA0EB0A00A4
:100AA000B84260D830688007F6D4A069F0B3D8F8AF
:100AB0000010C1F3810102295DD00228286820F0CE
:100AC0008070286003D0FFF7ADFC04464EE0FFF7CE
:100AD000A9FC064605E000BFFFF7A4FC801B6428C4
:100AE00041D828688001F7D447F6C0704FF0FF3630
:100AF0004FF4403790FAA0F204F1200097FAA7F7DC
:100B0000B2FA82F20BC84FF0706CB7FA87F706EBB7
:100B10005303E6699140E26A9CFAACF4BB40194386
:100B20003043B4FA84F308439A4000E021E01043D4
:100B300040F00050C9F80000286840F0807028603C
:100B4000FFF770FC044604E0FFF76CFC001B642810
:100B500009D828688001F7D50BE000BFFFF762FCD9
:100B6000001B642802D90320BDE8F88F28688001A3
:100B7000F4D40020F8E70120F6E70000083802402E
:100B800000700040401EB0F1807F10B501D30120FD
:100B900010BD4FF0E02460610F21601700F008F8ED
:100BA0000020A0610721216110BDFEE7FEE770472C
:100BB000090700284FEA116106DA00F00F0000F182
:100BC000E02080F8141D704700F1E02080F8001448
:100BD000704770477047000010B5FFF729FC0648C2
:100BE0000178491C01700178142904D10022027097
:100BF00001210248017010BD3D0000203C00002092
:100C0000104A30B51048146800210F4B44F47004AA
:100C10001460083305680D4A0D4C45F00105056068
:100C200019600368051D1340074A03600C322C60ED
:100C30000568E305034C25F480250560803C1160C0
:100C4000236030BD88ED00E000380240FFFFF6FE73
:100C500010300024FEE702E008C8121F08C1002A75
:100C6000FAD170477047002001E001C1121F002A2D
:100C7000FBD17047164900EB400010B501EB800234
:100C8000002451F82000D188FFF7C6FB012800D0CE
:100C900000200F490839CB782BB10022012B05D059
:100CA000022B11D107E078B1012002E058B10220F7
:100CB0000A71C87008E048B10879401CC0B20871D8
:100CC000642801D90324CA70204610BD0124FAE724
:100CD000300000202DE9F043124D4FF0000885B0A0
:100CE0004FF00209A5F10807444614E004EB44065E
:100CF00055F8260000F092F805EB86006946C38897
:100D0000CDE900388068CDE9020955F82600FFF7E3
:100D100097FA641CE4B238788442E7D305B0BDE8A2
:100D2000F0830000300000202DE9F0410027164C30
:100D30004FF001083E463D461EE02846FFF79AFF69
:100D4000A17811B1012915D10AE0012802D00328A8
:100D500004D00FE084F8028067700BE0032609E0FE
:100D600001280FD06078401CC0B26070322801D3D7
:100D70000126A7706D1CEDB220788542DDD3304688
:100D8000BDE8F0810226F4E728000020F0B5BFF3AB
:100D90004F8FBFF36F8F20490020DFF878E00860A5
:100DA000DEF8001041F40031CEF80010BFF34F8F91
:100DB000BFF36F8F174970310A1F0860106800F089
:100DC0000705C0F3C903C0F34E31B3FA83F02D1DFC
:100DD00000F01F07BFF34F8FDFF83CC00CF1100C81
:100DE000184601FA05F200BF00FA07F61643CCF8E0
:100DF0000060401EF8D2491EF2D2BFF34F8FDEF8DA
:100E0000000040F48030CEF80000BFF34F8FBFF3F6
:100E10006F8FF0BD14ED00E050EF00E02DE9F847D2
:100E20004549DFF818C1DFF818818842454F464E22
:100E3000464D474C474B484ADFF82091DFF820A148
:100E4000484907D1086840F001000860086800F0D0
:100E500001006EE060450CD1D1F800C04CF0020CEE
:100E6000C1F800C0D1F800C00CF0020CCDF800C0F1
:100E70000AE0404508D10F6847F004070F600F688B
:100E800007F0040700970AE0B84208D10E6846F060
:100E900008060E600E6806F0080600960AE0B042EA
:100EA00008D10D6845F010050D600D6805F01005BE
:100EB00000950AE0A84208D10C6844F020040C60B8
:100EC0000C6804F0200400940AE0A04208D10B68EA
:100ED00043F040030B600B6803F0400300930AE00B
:100EE000984208D10A6842F080020A600A6802F05B
:100EF000800200920AE0904208D10A6842F48072AF
:100F00000A600A6802F48072009209E0484507D13D
:100F1000086840F400700860086800F4007008E099
:100F2000504507D1086840F480600860086800F404
:100F300080600090BDE8F887000002400004024095
:100F400000080240000C0240001002400014024061
:100F500000180240001C0240002002400024024011
:100F6000002802403038024070B5144E002486B08C
:100F70001CE000BF114804EB4401001D00EB81059B
:100F80006868FFF74BFF002029890122009169461C
:100F9000CDE9012003906868FFF752F9A87A00288C
:100FA000204608D000F00CF8641CE4B2306884429B
:100FB000E0DB06B070BD00F00FF8F5E71800002088
:100FC00000EB4001034800EB8100018940680904FF
:100FD000816170471C000020044900EB400001EBD8
:100FE0008000018940688161704700001C0000207A
:100FF00000EB4001044800EB810148680A8941691F
:1010000051404161704700001C00002070B501266E
:1010100092B0330402249D0119200922CDE906452E
:1010200008AD0B924FF4D87185E81300CDE9006349
:101030006846FFF7DBFB00B1FEE7FFF757FA00B1A8
:10104000FEE70EAD00214FF4A0524FF4805385E827
:101050000E000F20CDE90C0407210CA8FFF77CFA45
:1010600000B1FEE7FFF75EFB12B070BD08B5FFF7F9
:101070008DFEFFF7E5F92248016841F080510160DB
:10108000006800F080500090FFF7C0FFFFF76CFF92
:10109000FFF720FE1B4D28780128FCD10020287086
:1010A000FFF742FE012811D002281BD00328F2D1FD
:1010B00000244FF47A760020FFF79AFF3046FFF7BE
:1010C000B4F8641CE4B2082CF5D3E4E70024002053
:1010D000FFF78EFF6420FFF7A8F8641CE4B2082C29
:1010E000F5D3D8E700244FF4FA760020FFF780FF0D
:1010F0003046FFF79AF8641CE4B2082CF5D3CAE72F
:10110000403802403C0000200000000001020304BF
:101110000102030406070809381100080000002036
:1011200040000000560C0008781100084000002024
:1011300000040000660C00080024F4000000000019
:101140000000000001020304060708090000000077
:101150000100000000000000002002400200010029
:101160000100000000000000002002400000000814
:08117000000000000000000077
:04000005080001C925
:00000001FF
